:020000040000FA
:0400000033EF00F0EA
:020008001000E6
:0800180010004F0E836E120070
:100020005B0E836E12007F0E836E1200836A1200D5
:10003000FC0E016EFA0E006EFA0E026E0000000059
:1000400000000000000000000000000000000000B0
:100050000000000000000000000000000000002E72
:10006000012E022E1200956A836A13EC00F018EC40
:1000700000F016EC00F018EC00F010EC00F018ECBA
:1000800000F016EC00F018EC00F00DEC00F018ECAD
:0C00900000F016EC00F018EC00F0E7D7D0
:00000001FF
